:020000020000FC
:040000000C94180143
:040060000C944500B7
:10006800000082E08A95F1F7089593E000009A95E0
:10007800E9F78A95D1F7089580EB90EE0196F1F7AC
:1000880008951895449A459A88E48093B80080E0CA
:100098008093B90085E48093BC0008950F9304EA27
:1000A8000093BC000091BC0007FFFCCF0091B90091
:1000B800087F08308894881F8093BB0004E8009369
:1000C800BC000091BC0007FFFCCF0091B900087F7D
:1000D80008310191002371F00093BB0004E80093FC
:1000E800BC000091BC0007FFFCCF0091B900087F5D
:1000F8000832EFCF04E90093BC000F9108950F93E5
:1001080004EA0093BC000091BC0007FFFCCF0091FB
:10011800B900087F08308894881F8093BB0004E8E2
:100128000093BC000091BC0007FFFCCF0091B90010
:10013800087F08319093BB0004E80093BC0000914D
:10014800BC0007FFFCCF0091B900087F0832A093DC
:10015800BB0004E80093BC000091BC0007FFFCCF83
:100168000091B90004E90093BC000F9108958EE353
:1001780090E8A8E2C4DF82E378DF7EDF7DDF7CDF02
:100188008EE390E8A8E2BBDF82E36FDF84E66DDFF1
:100198008EE390E8A8E2B3DF82E367DF8EE390E8BE
:1001A800A8E2ADDF82E361DF8EE390E8A8E3A7DF92
:1001B80082E35BDF8EE390E8A8E0A1DF82E355DF0E
:1001C8008EE390E8A1E09BDF82E34FDF55DF8EE30B
:1001D80090E8A6E094DF82E348DF8EE390E8ACE0A5
:1001E8008EDF82E342DF82E690E0A0E088DF82E6ED
:1001F80098E0AFEF84DF82E691E0A0E280DF82E65C
:1002080092E0A0E07CDF82E693E0A0E078DF82E67F
:1002180093E0AFEF74DF08958EE390E8A1E06FDF1D
:1002280082E323DF29DF089508E00EBF0FEF0DBF3B
:1002380084E08AB980E387B925DF99DF8EE390E807
:10024800A0E85DDF82E311DF8EE390E4A5E557DFE8
:1002580082E30BDF8EE390E4A5E651DF82E305DF5E
:100268008EE390E4A2E74BDF82E3FFDE8EE390E4C7
:10027800A7E645DF82E3F9DE8EE390E4A3E73FDFFC
:1002880082E3F3DE4B9BFECF4B99FECFC5DF8EE3B7
:1002980090E8A0EC34DF82E3E8DE8EE390E4A2E4A9
:1002A8002EDF82E3E2DE8EE390E4A5E628DF82E338
:1002B800DCDE8EE390E4ADE622DF82E3D6DE8EE379
:1002C80090E4ADE21CDF82E3D0DE8EE390E4A6E5A5
:1002D80016DF82E3CADE8EE390E4A9E610DF82E34C
:1002E800C4DE8EE390E4AEE60ADF82E3BEDE8EE390
:1002F80090E4A4E604DF82E3B8DE8EE390E4AFE6A0
:10030800FEDE82E3B2DE8EE390E4A1E2F8DE82E371
:06031800ACDE0000FECF88
:00000001FF
