:020000020000FC
:040000000C947E00DE
:040028000C94B10281
:100034000C94BA0280E329983ED084E651D057D07C
:1000440056D055D080E3299836D084E649D080E351
:10005400299831D084E644D088E229982CD084E6CB
:100064003FD088E2299827D036D080E824D082E394
:1000740037D088E029981FD02ED080E81CD082E3A6
:100084002FD081E0299817D026D080E114D082E3C4
:1000940027D02DD086E029980ED01DD080E60BD035
:1000A40082E31ED08CE0299806D015D080EC03D0D2
:1000B40082E316D008952D982C982B982A9887FDC2
:1000C4002D9A86FD2C9A85FD2B9A84FD2A9A289ACE
:1000D40002D028980895000082E08A95F1F70895E7
:1000E40093E000009A95E9F78A95D1F7089580EB9B
:1000F40090EE0196F1F7089508E00EBF0FEF0DBFE3
:1001040040E384E18AB98FE384B95A980FEF0093EE
:100114007F0004E400BF00E000937B008BDF83E4F6
:10012400299AC9DF82E3DCDF80E3C5DF82E3D8DF1D
:1001340081E6299AC0DF82E3D3DF80E1BCDF82E37A
:10014400CFDF80E7299AB7DF82E3CADF80E0B3DF3D
:1001540082E3C6DF80E2299AAEDF82E3C1DF80E07A
:10016400AADF82E3BDDF8DE4299AA5DF82E3B8DF4D
:1001740080EDA1DF82E3B4DF85E6299A9CDF82E388
:10018400AFDF80E598DF82E3ABDF84E7299A93DF72
:1001940082E3A6DF80E48FDF82E3A2DF85E6299A8B
:1001A4008ADF82E39DDF80E586DF82E399DF82E7F1
:1001B400299A81DF82E394DF80E27DDF82E390DFAE
:1001C40080EC299878DF87DF80E075DF82E388DFC1
:1001D40080E5299A70DF82E383DF80E06CDF82E3CD
:1001E4007FDF82E7299A67DF82E37ADF80E263DFD9
:1001F40082E376DF85E6299A5EDF82E371DF80E5BC
:100204005ADF82E36DDF83E7299A55DF82E368DFF3
:1002140080E351DF82E364DF83E7299A4CDF82E3E2
:100224005FDF80E348DF82E35BDF80E2299A43DF1C
:1002340082E356DF80E03FDF82E352DF84E7299ADE
:100244003ADF82E34DDF80E436DF82E349DF8FE685
:10025400299A31DF82E344DF80EF2DDF82E340DF40
:1002640080E2299A28DF82E33BDF80E024DF82E317
:1002740037DF83E5299A1FDF82E332DF80E31BDF68
:1002840082E32EDF84E7299A16DF82E329DF80E404
:1002940012DF82E325DF81E6299A0DDF82E320DF86
:1002A40080E109DF82E31CDF82E7299A04DF82E32D
:1002B40017DF80E200DF82E313DF84E7299AFBDEA5
:1002C40082E30EDF80E4F7DE82E30ADF4B9BFECF9E
:1002D4005C9A4B99FECF5C9880EC2998ECDEFBDEAF
:1002E40080E0E9DE82E3FCDE80E2299AE4DE82E358
:1002F400F7DE80E0E0DE82E3F3DE86E5299ADBDEEA
:1003040082E3EEDE80E6D7DE82E3EADE81E6299A46
:10031400D2DE82E3E5DE80E1CEDE82E3E1DE8CE65E
:10032400299AC9DE82E3DCDE80ECC5DE82E3D8DE16
:1003340085E7299AC0DE82E3D3DE80E5BCDE82E372
:10034400CFDE85E6299AB7DE82E3CADE80E5B3DE36
:1003540082E3C6DE8AE3299AAEDE82E3C1DE80EA66
:10036400AADE82E3BDDE80E2299AA5DE82E3B8DE5E
:1003740080E0A1DE82E3B4DE80E2299A9CDE82E39F
:10038400AFDE80E098DE82E3ABDE80E2299A93DE82
:1003940082E3A6DE80E08FDE82E3A2DE80E2299A99
:1003A4008ADE82E39DDE80E086DE82E399DE80E2FF
:1003B400299A81DE82E394DE80E07DDE82E390DEB2
:1003C40080E2299A78DE82E38BDE80E074DE82E3C9
:1003D40087DE80E2299A6FDE82E382DE80E06BDED4
:1003E40082E37EDE86E4299A66DE82E379DE80E6B5
:1003F40062DE82E375DE80E2299A5DDE82E370DEEE
:1004040080E059DE82E36CDE88EC299854DE63DEFA
:1004140080E851DE82E364DE6ADE332700E0009385
:100424008500009384000093800001E200936F0034
:1004340002E8009381000FEF06BB5A9A78943323A5
:10044400F1F3F8945A988894881F991F45E0AA27D5
:10045400BB27992321F4882312F08A301AF00A97D3
:100464001196F7CF80638F93CD014A9581F711E000
:1004740021E00F91003319F41127222700E2802F85
:10048400299A19DE82E32CDE0295802F14DE82E3A2
:1004940027DE0F91112339F411E021E0003319F420
:1004A4001127222700E2802F299A05DE82E318DE35
:1004B4000295802F00DE82E313DE222349F08CE2D2
:1004C400299AF9DD82E30CDE80ECF5DD82E308DEB7
:1004D4000F91112321F4003311F4112700E2802F2E
:1004E400299AE9DD82E3FCDD0295802FE4DD82E3D5
:1004F400F7DD0F91112321F4003311F4112700E2E9
:10050400802F299AD8DD82E3EBDD0295802FD3DD9D
:1005140082E3E6DD0F91222351F085E7299ACBDDB2
:1005240082E3DEDD80E5C7DD82E3DADD13C0802F00
:10053400299AC1DD82E3D4DD0295802FBCDD82E3FC
:10054400CFDD8EE6299AB7DD82E3CADD80EEB3DD26
:1005540082E3C6DD0FEFCBDD0A95E9F755CF809135
:1005640086009091870031E000E80093810018959F
:040574005C9A1895E0
:00000001FF
